:020000040800F2
:1000000000000220E1050008310600083106000862
:100010003106000831060008310600080000000023
:100020000000000000000000000000003106000891
:100030003106000800000000310600083106000803
:1000400031060008310600083106000831060008B4
:1000500031060008310600083106000831060008A4
:100060003106000831060008310600083106000894
:100070003106000831060008310600083106000884
:100080003106000831060008310600083106000874
:100090003106000831060008310600083106000864
:1000A0003106000831060008310600083106000854
:1000B0003106000831060008310600083106000844
:1000C0003106000831060008310600083106000834
:1000D0003106000831060008310600083106000824
:1000E0003106000831060008310600083106000814
:1000F0003106000831060008310600083106000804
:1001000031060008310600083106000831060008F3
:1001100031060008310600083106000831060008E3
:1001200031060008310600083106000831060008D3
:100130003106000800000000000000003106000841
:1001400031060008310600083106000831060008B3
:1001500031060008310600083106000831060008A3
:100160003106000831060008310600083106000893
:1001700031060008310600083106000800000000C2
:100180000000000031060008000000000000000030
:1001900031060008000000000000000031060008E1
:1001A0000000000000000000000000003106000810
:1001B0003106000831060008310600083106000843
:0401C00031060008FC
:1001C40010B5054C237833B9044B13B10448AFF38D
:1001D40000800123237010BD0800002000000000EF
:1001E4007C06000808B5034B1BB103490348AFF371
:1001F400008008BD000000000C0000207C06000800
:10020400034AD2F8883043F47003C2F88830704748
:1002140000ED00E000B583B000F0B0F9B0E00023D9
:10022400019302E0019B01330193019A46F2A71363
:100234009A42F7DDA94BD3F8103803F00103994231
:1002440003D0A74A137801331370A54B1B78042BF2
:1002540040F2A480A24B00221A709FE0934202D085
:10026400012B00F0AD80934202D0022B00F0B1804C
:10027400934202D0032B00F0B780934202D0042BA8
:1002840000F0BB80974A1278002A40F0BE80964A5C
:1002940001211170954A00211170954A1278002AA3
:1002A40040F0C680934A01211170934A00211170D5
:1002B400924A1278002A40F0CE80914A01211170AE
:1002C400904A00211170854AD2F8102802F00100EA
:1002D4008D490870C2F340008C490870C2F3800055
:1002E4008B490870C2F3C0028A490A708A4A1370A3
:1002F4007D4B1B78002B00F0C180784AD2F8183867
:1003040043F00203C2F818387A4B1B78002B00F034
:10031400BD80724AD2F8183843F00403C2F8183882
:10032400774B1B78002B00F0B9806C4AD2F8183850
:1003340043F00803C2F818386C4B1B78002B00F00C
:10034400B580664AD2F8183443F40053C2F818341E
:10035400694B1B78002B00F0B180604AD2F8183446
:1003640043F48043C2F81834664B1B78002B00F02A
:10037400AD805A4AD2F8183443F40043C2F8183412
:10038400564BD3F8103803F001035F4A117881F01B
:1003940001028B4202D0002A7FF441AF504B1B78FC
:1003A4005D4A127893423FF459AF002B7FF456AF65
:1003B40001214C4801704E480170504801704DE7CE
:1003C4004849002008700121494801704B480170D8
:1003D40049E701214348017045484FF0000C80F87B
:1003E40000C04648017043E701213E48017040487F
:1003F40001704249002008703FE7002239490A7021
:100404003B490A703D490A703CE7344AD2F8102847
:1004140012F0020F06D0344A00211170334A012130
:1004240011703AE7002230490A7030490A7034E703
:100434002A4AD2F8102812F0040F06D02D4A0021BF
:1004440011702D4A0121117032E7002229490A70E6
:1004540029490A702CE7214AD2F8102812F0080F13
:1004640006D0274A00211170264A012111702AE77B
:10047400002223490A7023490A7024E7174AD2F854
:10048400183843F40033C2F818383DE7134AD2F859
:10049400183843F48023C2F8183841E70F4AD2F8D9
:1004A400183843F40023C2F8183845E70B4AD2F849
:1004B400183443F00053C2F8183449E7074AD2F815
:1004C400183443F08043C2F818344DE7034AD2F895
:1004D400183443F00043C2F8183451E700000240D6
:1004E4002B00002006000020290000202600002008
:1004F4000500002028000020250000200400002022
:100504002700002024000020030000200200002017
:1005140001000020000000202A000020064BD3F830
:10052400002842F00402C3F80028D3F8082842F057
:100534000402C3F80828704700000240064BD3F8B1
:10054400002842F01002C3F80028D3F8082842F02B
:100554001002C3F80828704700000240064BD3F885
:10056400002842F04002C3F80028D3F8082842F0DB
:100574004002C3F8082870470000024008B5154A35
:10058400D2F8303843F00603C2F83038124BD3F8AF
:10059400001441F08062C3F80024D3F8082442F028
:1005A4008060C3F8080441F0A050C3F8000442F08E
:1005B400A050C3F8080441F0A841C3F8001442F065
:1005C400A842C3F80824FFF7A9FFFFF7B7FFFFF716
:1005D400C5FF08BD0030024000000240DFF834D0FF
:1005E4000D480E490E4A002302E0D458C450043387
:1005F400C4188C42F9D30B4A0B4C002301E013605E
:100604000432A242FBD3FFF7FBFD00F011F8FFF721
:1006140001FE7047000002200000002008000020B6
:100624009C060008080000202C000020FEE70000C3
:1006340070B50D4D0D4C641BA4100026A64209D1C3
:100644000B4D0C4C00F018F8641BA4100026A642B5
:1006540005D170BD55F8043B98470136EEE755F8CF
:10066400043B98470136F2E7940600089406000814
:100674009406000898060008F8B500BFF8BC08BC4A
:100684009E467047F8B500BFF8BC08BC9E4670474C
:04069400E901000870
:04069800C501000890
:08069C0001010101010101004F
:04000005080005E109
:00000001FF
